:020000040800F2
:1000000070170020CDA00008E19F0008E39F0008C2
:10001000F39F0008F59F0008F79F0008000000000C
:10002000000000000000000000000000F99F000830
:10003000FB9F000800000000FD9F0008FF9F0008D4
:10004000E9A00008EDA00008F1A00008F5A0000854
:10005000F9A00008FDA0000815A0000801A10008F3
:1000600005A1000809A100080DA1000811A10008C0
:1000700015A1000819A100081DA1000821A1000870
:1000800025A1000829A100082DA1000800000000FA
:1000900000000000000000000000000031A1000886
:1000A00035A1000839A100083DA1000841A10008C0
:1000B00045A1000849A100084DA1000851A1000870
:1000C00055A1000859A100085DA1000861A1000820
:1000D00065A1000869A100086DA1000800000000EA
:1000E0001BA0000871A1000875A100080000000015
:1000F00000000000000000000000000079A10008DE
:10010000000000007DA1000803A0000881A10008F4
:1001100000000000000000000000000000000000DF
:1001200085A1000889A100088DA1000891A10008FF
:1001300095A1000800000000000000000000000081
:1001400000000000000000000000000099A100086D
:100150009DA10008A1A10008A5A10008A9A100086F
:10016000ADA10008B1A100080000000000000000DF
:10017000000000000000000000000000000000007F
:1001800000000000B5A10008000000000000000011
:10019000B9A10008BDA10008E0B501F002FE01F020
:1001A00049FF01F017FE02F0F2F801A801F02EFF5E
:1001B0000FF238019DF809300A8800A802804A88A9
:1001C0000FF22C0142800DF101009DF8082002F091
:1001D0004BFADFF87C0C00A902F060FA64230722D6
:1001E00001A902F095F902F0A4F907BD5F00000033
:1001F00025303164253031640000000070B5DFF82F
:10020000DC6A2DED048B306B00289FEDA58A3DD173
:10021000746F204602F05AFAB4F5C86F41EC190B1E
:1002200012D90020DFF8041B53EC192B02F05CFA02
:1002300000F092F8DFF8F83A02F056FA00F08CFB82
:100240000022DFF8F03A17E0A4F22130B0F5487F41
:1002500018D24FF06630DFF8E01A53EC192B02F099
:1002600043FA00F079F8DFF8243B02F03DFA00F0A1
:1002700073FB0022DFF8183B02F06AFB02F0DCFBA4
:10028000F06515E0B4F5487F12D80FE0DFF8040BF5
:1002900090ED000ADFED830A00F0B3FC06D5F2EE24
:1002A000040A80EE200A86ED170A01E086ED178A1F
:1002B00096ED170A96ED191AF3EE090A70EEC00AC8
:1002C00071EE208A9FEDA81AF4EE418AF1EE10FA41
:1002D000C6ED180AA8BFDFEDA58A08DA9FEDA41ABB
:1002E000F4EE418AF1EE10FA48BFF0EE418A9FED3C
:1002F000A11AB4EE410AF1EE10FA22DBB4EE480A7C
:10030000F1EE10FA1DD59FED9C0A20EE800A10EE4A
:10031000100A02F0D9FB04460D4618EE900A02F0CE
:10032000D3FB00F0B7FB00F017FB02F085FB00EEFB
:10033000100ADFEDAB0A00F064FC06D5B0EE600AEF
:1003400003E09FEDB80ADFEDB78A86ED150AC6ED2A
:10035000198ABDEC048B70BD04460D4651EC190B97
:100360000022704738B5DFF874490FF2B801626AAD
:10037000256B94ED150A0FF2B800531CEDB9656FAB
:10038000B5F57A7F0AD9A2B900F058F833D5012122
:10039000616200F027F9606A68B325E0B5F52F7F48
:1003A00007D242B3332B6362F5DB0020606208465C
:1003B000EFE702B30120606216E0DFF8D859D5ED0F
:1003C000000ADFED991AF4EE610AF1EE10FA9FEDE2
:1003D000BD1A11D582B900F031F81BD50121616237
:1003E00000F000F9606A30B194ED150A00F026F8CB
:1003F00044BF0020606531BDF4EE410AF1EE10FA11
:1004000008DB002AF7D0332B6362EBDB002060624D
:100410000846E5E7F4EE410AF1EE10FAE2D5002ACB
:10042000E9D0C7E75B6D35355DB0B2C8AB00000001
:100430005B6D35355DCEA3CFD5000000B5EE400A2B
:10044000F1EE10FA7047026842B3DFF8401B1E233A
:1004500003FB02120B789A1813793BB100EE103AA5
:10046000DFF82C3BB8EE400A83ED000A12F81A3C84
:100470003BB100EE103ADFF8883BB8EE400A83ED5E
:10048000000A1379002B04BF12F81A2C002A02D19B
:100490000260002008700878401C08707047000057
:1004A000000048420000FA430068DFF8E41ADFF871
:1004B000502B91ED000AD2ED000A01284FD1DFF850
:1004C000440B03689FEDB52AB4EE420AF1EE10FA30
:1004D0009FEDB31ADFEDC41A03DB13B9FFEE002A58
:1004E00008E0B4EE610AF1EE10FA06D5012B0BD14B
:1004F000F7EE002A30EE220A0DE0B4EE610AF1EECA
:1005000010FA08BF002305D0B4EE410AF1EE10FA4C
:1005100001D101230360F4EE610A4368F1EE10FAA1
:1005200003D513B9B7EE001A08E0F4EE420AF1EE73
:1005300010FA06DB012B04D1BFEE001A70EE810A1F
:100540000DE0F4EE610AF1EE10FA08BF012305D0C8
:10055000F4EE410AF1EE10FA01D100234360C2ED3E
:10056000000A81ED000A704701409C4500409C450F
:1005700000409CC50100A04000007042DFF85C070D
:10058000C16A026D4F329F2A3FBFDFF8082B126EFF
:100590004F329F2A9FEDBA0A10D2DFF8FC2AD2ED23
:1005A000000AF4EE400AF1EE10FA07D5491C0829BA
:1005B00006DB012101620021C16204E001B10021DA
:1005C000C162016A59B1DFF8C41B416580ED160AAA
:1005D000016A491C01621529A4BF0021016270470C
:1005E0000000FAC47CB50FF2440104460CC900A80F
:1005F00000250CC02846451CC0B2005D0028F9D17A
:10060000A81C8DF802006423DFF8846B052200A982
:10061000304602F0C2FA6423EAB22146304602F0C4
:10062000BCFA73BD0000000000009643FD0000010D
:10063000000000002DE9FC47884691460FF2880132
:1006400004460CC900A800270CC000253E463846C9
:10065000471CC0B2005D0028F9D12846451CC0B235
:1006600010F808000028F8D13046461CC0B210F837
:1006700009000028F8D100A8EA198178DFF810AB4A
:10068000B218511881706423052200A9504602F067
:1006900084FAFFB27A1E642392B22146504602F0D9
:1006A0007CFAE8B2421E642392B24146504602F000
:1006B00074FA6423F2B24946504602F06EFABDE87D
:1006C000F38700000100FA43FD0000010000000074
:1006D00030B50368DFF80446DFF8745A002B5AD0AF
:1006E00095ED000AD4ED0F0A30EE600ADFED970AAF
:1006F00000F087FA04D592ED000ADFED950A08E0D4
:10070000DFED940A00F07DFA07DB92ED000ADFEDE1
:10071000B90A30EE200A82ED000A012B12D1DFF86F
:10072000743A95ED000AA365D2ED000A30EE600A36
:10073000D1ED000AF8EEE00AF4EE400AF1EE10FA0C
:1007400017D513E0022B14D1DFF84C3AD5ED000A8F
:10075000A36591ED000A92ED001AB8EEC00A70EEA2
:10076000C10AF4EE400AF1EE10FA02D500230B6044
:100770000360A06978B192ED000AD5ED000ADFF8B8
:10078000100830EE600AF6EE000A9FEDC51A00EE82
:10079000201A80ED001A2868E06330BD01006C4229
:1007A00000006C4210B5DFF8580890ED000ADFF841
:1007B000E00700F021FA90ED000A00F018FA832813
:1007C000A8BF822002DA2228B8BF2220832CA8BF2B
:1007D000822402DA222CB8BF222400F03EFA2046FE
:1007E000BDE8104036E200000000C64238B5DFF830
:1007F000A007DFF8E82490ED000A526FDFF8A03977
:10080000DC6FFDEEC00A10EE901ADFED1D0A00F05D
:10081000F8F909D5012C07D1494203EB8101F7EE24
:10082000000AC1F8902110E09FED9E1AB4EE410A33
:10083000F1EE10FADFF86C590CDB5CB905EB8101C5
:10084000A1F58C71FFEE000A0A6030EE200A80EDFF
:10085000000A31BD00F0D5F905D10020D8671A6033
:10086000BDE831400EE0DFED900A00F0CAF905D195
:100870000120D8672A60BDE8314020E031BD00008A
:100880000000C8420A20DFF82019DFF8142952F8C6
:100890002030B3F57A7F01DD086007E01E2804BF31
:1008A0004FF0FF330B60401C1F28F0DBDFF82C04F7
:1008B00090F86800C00748BF02F0F2BB70470A20FA
:1008C000DFF8E418DFF8DC2852F82030B3F57A7F3F
:1008D00001DD486007E01E2804BF4FF0FF334B6086
:1008E000401C1F28F0DBDFF8F40390F86800C00715
:1008F00048BF02F0D5BB7047F8B5DFF8B0482DED22
:10090000028B204602F08AFCDFF8D0730646786F2F
:1009100066649FEDBE8B01F0D9FE53EC182B02F0FC
:1009200093FD02F079FE01F0D1FE04460D463046FB
:1009300001F0CCFE53EC182B02F086FD00F00CF811
:1009400002F06AFE7867BDEC028BF1BD000096C331
:100950000000B4C30100964322462B4601F0F8BFC5
:1009600010B5DFF84C088AB0016841F0020101605F
:10097000016801F0020100910099416941F4807120
:10098000416105A9406900F4807000900098022040
:1009900005900320069000200790DFF8180802F069
:1009A00051FEDFF80848DFF8100820600020606082
:1009B000A06020610120A06100206062A06220632D
:1009C000E062E060012020620020E061606120467A
:1009D00002F0B2FB0920019001A901200290002041
:1009E00003900490204602F01CFC204602F0BFFB5E
:1009F0000AB010BD0000B4432DE9F843DFF8946657
:100A0000002106F1240003F021F9F16EDFF8AC8734
:100A1000DFF8AC47F066411A4FF6FF77414544F6E0
:100A20002169B8BF791802DB4945A8BF6118AB4DF1
:100A3000DFF890072965002103F008F9316F30676E
:100A4000411A4145B8BF791802DB4945A8BF611872
:100A50003166286D401A00EBD0704710706EB76693
:100A600001F02AFE4FF06632DFF85C3702F0ECFC52
:100A700002F0BCFD01F020FE04460D46384601F0B0
:100A80001BFE00F007F8FFF767FF02F0AFFD70668E
:100A9000BDE8F1834FF03332DFF8303702F0D4BCD9
:100AA0000000924201008C4200008C4270B58B4DD8
:100AB000287D0028FDD1DFF8184701202875204641
:100AC00003F04CFA04F1080003F050FA00202875F6
:100AD00034F9000000EE100AF8EEC01AC4ED071A4F
:100AE000B4F90200B4F90410B4F90820B4F90A30DA
:100AF000B4F90C50B4F91060B4F91260B4F9146090
:100B000094ED060A00EE901AF8EEE02A00EE900A44
:100B1000B8EEE02AA5F2C71000EE900AF8EEE00A5F
:100B200020EE801AA3F1320000EE900A02F1A2003A
:100B3000F8EEE00A03EE100A60EE800AB8EEC33A5F
:100B400023EE000A03F0BEFA03F038FA02F081FA4D
:100B500002F0C0F9BDE8704010B560482DED028B81
:100B600090ED168ADFF83005D0ED008A38EE880A5D
:100B700000F03DF801F0A0FDDFF85826DFF8583608
:100B800002F062FC02F032FDDFF8501640F2E93369
:100B90004FF47A729842A8BF104602DA8842B8BF72
:100BA000084638EEC80A00F027F89C42A8BF144651
:100BB00002DA8C42B8BF0C46DFF8241691ED000A29
:100BC000DFED830A00F01DF808DBDFEDA00A00F07E
:100BD00018F803D500F047F8204603E0002000F0A5
:100BE00042F80020BDEC028BBDE8104058E0BDEE9D
:100BF000C00A10EE100A7047BDEEC00A10EE104A8F
:100C00007047B4EE600AF1EE10FA70470000000081
:100C10000000E03F10B5DFF89805DFF8784C86B0AB
:100C200000F03CFA00F00FF84FF47060019020469D
:100C300002F008FD00200290039001A94FF48050BB
:100C40000190204648E101200290002003900220FC
:100C5000049070470246082101E002460421DFF8B3
:100C6000380C02F0CABF10B502004FF08050DFF818
:100C700074154FF4802300D132E0012ADFF81C4CB8
:100C800003DB04230B60086004E00B604FF480502A
:100C900008605242201DBDE81040082102F0ADBF9F
:100CA00010B502004FF08040DFF83C154FF00053C4
:100CB00000D115E0012ADFF8E44B04DB4FF40053C8
:100CC0000B60086004E00B604FF480400860524203
:100CD000201DBDE81040002102F08FBF340E00201F
:100CE0000B60086010BD10B5DFF8A444DFF8B01B3E
:100CF00000F057F886B0082000F05BF8416941F039
:100D00002001416101A9406900F020000090009895
:100D10004FF4006001900220FFF796FF082000F0DA
:100D20002FF9204601F0FCFE06B010BD40C1E540A1
:100D300000E09540000022C0AA46004130B5DFF82F
:100D40006C4BDFF86C1BDFF8745C00F02AF887B09E
:100D50000C2000F02EF8016941F40031016101A975
:100D6000006900F4003000900098042000F002F9BF
:100D70000220049000F010F80820019001A900F072
:100D80000BF8204601F0CCFE07B030BD00002E402D
:100D9000004065C06013002007200590284602F03F
:100DA00051BC606021600020A060E0602061A06113
:100DB000704760610020E061DFF8F403016841F0F2
:100DC00001010160016801F0010100910099704783
:100DD000FFFF47C270B5AF4CDFF8D80A60624FF62C
:100DE000FF750020A0626063E0622563012020603F
:100DF0002146002060600120A0600020E060062005
:100E00002061002060610120A0610020E0610620D7
:100E1000206204F1240002F088FD002104F1240086
:100E200002F0C6FDDFF89C63DFF89C0B3060F560D4
:100E3000002070603061B0602146304602F075FDE0
:100E40003046BDE87040002102F0B2BD00004842CB
:100E5000BC05002010B5DFF8444A4FF080406060C8
:100E600086B040F2E73020611320A060002060616E
:100E7000E060201D02F006FD6020206408224FF48F
:100E80002F70606400F02CF8002200F029F808218F
:100E9000201D02F004FD0021201D02F000FDDFF8FE
:100EA0001003016841F001010160006800F00100D9
:100EB00000900098FFF7C7FE4FF4C04001902078E3
:100EC00020B901A9DFF8F40A02F0BCFB41F20400EA
:100ED000019001A9DFF8DC0202F0B4FB06B010BDFE
:100EE00004F14001201D02F01DBE70B5B04C86B06B
:100EF000206840F00100206001A900F04BF84FF499
:100F0000C06000F037F803200490012000F038F8AA
:100F1000DFF88459DFF8B80A286040F2E730E8606B
:100F200040F2CF70686000202861A860284602F077
:100F3000A9FCDFF8A06A6020306404224F207064AE
:100F400000F013F8082200F010F80821284602F0FB
:100F5000A6FC0421284602F0A2FC206840F0010013
:100F6000206000F017F806B070BD06F14001284679
:100F700002F0D8BD0190022002900120039070473A
:100F80000590DFF8380A02F05DBB00004402002043
:100F900044060020206800F001000090009860697D
:100FA00040F001006061606900F00100009000986D
:100FB000704710B5DFF8204ADFF8201A2160401E84
:100FC000E06082B042F20F70606000220020206179
:100FD000A060DFF80C0A016841F0080101600421FB
:100FE00000F012F8322003F082F9322003F0A1F968
:100FF000204602F00FFC2046BDE8164002F021BC5E
:101000004006002040130020006800F00800009017
:101010000098704730B5DFF8CC49DFF8CC09644D53
:10102000206087B04FF6FF70E0604FF42070606082
:1010300000202061A060686940F4803068616869C0
:1010400000F4803000900098204602F0E3FB204638
:1010500002F0EEFB286840F00100286001A9286832
:1010600000F0010000900098DFF884090290012050
:1010700003904FF480500190DFF8400902F0E2FA4B
:1010800000220221282003F032F9282003F051F930
:1010900007B030BDB40F00207C030020016841F090
:1010A0000401016001A9006800F0040000900098AC
:1010B00070470000F0B5F7EE000A002300220A2175
:1010C000FFF79FFD09DBFDEEC00A10EE904AF8EE37
:1010D000E00A30EE600A9CB903E0DFED300A30EE42
:1010E000200A302202702E22427002221DE00A25C0
:1010F00094FBF5F501FB154430341C545B1C2C4665
:10110000012CF4DA5C1E07E0A61A155C16F800C084
:1011100002F800C035543A4603EBD375571C6D10E6
:10112000BD42F1DA2E221A545A1CF2EE040A20EEC5
:10113000200AFFF761FD10EE103A94FBF1F401FB79
:10114000143130311154101800214170F0BD0000ED
:101150003C050020DFF89C08C18A491CC182117837
:1011600001705178417091788170D178C170117996
:1011700001715179417191798171D179C171704752
:10118000DFF874180120087001F0D3B900007A4428
:10119000841100200000C8C30000C8430000008084
:1011A000B80E0020380F0020481300203C1100200A
:1011B000303802400004024000200140E0B1FFFF4F
:1011C0000100FFFF401200206666E63F3333D33F45
:1011D000880500208FC2F5285C8FF03F18FCFFFFC8
:1011E0007403002018040240180002402DE9F84F53
:1011F0002DED088B92B003F0CDF8DFF8E40701681D
:1012000041F080510160006800F08050009000982B
:10121000DFF8E807016841F440410160006800F42C
:101220004040009000980220069001200990102074
:101230000A9002200C9000200D9010200E904FF488
:10124000C8700F90042010900720119006A803F09A
:10125000E5F818B1002003F08BFBFEE70F200190AA
:10126000032102200290002003904FF4805004904C
:101270000020059001A803F014FA18B1002003F033
:1012800077FBFEE74FF41650FFF72DFD002003F02B
:1012900049FB4FF4E130FFF751FD02F0EFFD03F0A1
:1012A00087FB03F0BBFB03F0F9FB02F079FE0020A3
:1012B00003F05EFB03F08CFCFFF7CCFDFFF715FE9F
:1012C000FFF788FDFFF7A6FCFFF7A4FEFFF748FB3A
:1012D000DFF82CB79BED000AFFF789FCFFF7BAFC9B
:1012E000DFF8208708F104043220E0702071FEF757
:1012F00053FF1920FFF75DFE08F582759FEDD28A36
:10130000DFEDD28A9FEDD29ADFEDD29A9FEDD2AA7D
:10131000DFF8F4A6DFF8DC6610E0DFEDD00AFFF7B7
:1013200070FC48BF30EE090A85ED070A08F5907297
:1013300008F5887108F58A70FFF7CAF900F0A1FE78
:10134000DFF8B406007818B1DFF8AC16002008709A
:10135000BFB2F08AB84219D096F9000088F80400AC
:1013600096F90100607096F90200A07096F90300EA
:10137000E07096F90400207196F90500607196F905
:101380000600A07196F90700E07103E0686A002882
:1013900000F0A2810020686298F90400732804BF5D
:1013A00094F90100742840F0978194F90700B16E18
:1013B0002862A07800F00100814208D0B0660028C1
:1013C00014BF0FF284600FF29060FFF70BF9A07862
:1013D000F16E00F00200814208D0F066002814BFD0
:1013E0000FF284600FF29060FFF7FCF8A078316F85
:1013F00000F00400814208D03067002814BF0FF2CB
:1014000088600FF29460FFF7EDF8DFF80016307D8A
:1014100091ED000A296A432908F5967700F02981A1
:10142000442900F09F80482965D04C2900F0FA80BB
:101430004E2900F0F1804F2900F01881502949D041
:10144000522900F01081532900F0F380542963D011
:10145000552972D0592900F0D98061291ED06329FD
:1014600035D069292AD06C2908D072290AD076296A
:1014700011D077290CD078291DD0FEE05A20E860E1
:10148000012003E06FF05900E8600220286112E0BB
:101490000420B061F1E003206861EEE0A86938B98A
:1014A0000120A86185ED070ADFF86405B065E4E076
:1014B0000020A861E1E085ED070ADEE00FF2E850C8
:1014C000FFF790F8DFF844050068E861D5E00FF217
:1014D000F850D0E000F0B1F9284603F03FFB0020BF
:1014E0003075384698ED410AFFF7E4FD0FF2F852E7
:1014F0000FF2E05080E000F0A0F908F5847003F0EE
:10150000B7FA00203075384695ED010AFFF7D2FD95
:101510000FF2DC50C1A26FE000F08FF908F5867081
:1015200003F0AEFA00203075384695ED020AFFF759
:10153000C1FD0FF2D850BAA25EE0306B78B1DFF88F
:10154000D41491ED000AF2EE040A384680EE200A27
:10155000FFF7B0FD0FF2E4520FF2C4504CE00FF26F
:10156000E45088E0FFF7C8F9D6F87490484601F0D7
:10157000ADF8B9F5C86F41EC1B0B15D90020DFF8A9
:10158000981453EC1B2B01F0AFF8CDE900010022B9
:1015900051EC1B0BDFF8843401F0A6F800F047F99A
:1015A0000022DFF87C3418E0A9F22130B0F5487F42
:1015B00026D24FF06630DFF86C1453EC1B2B01F091
:1015C00093F8CDE900010F20B9FBF0F001F07EF8AF
:1015D00000F02DF90022DFF8503401F0B9F901F0E4
:1015E0002BFA00EE100A86ED170A3846FFF762FD67
:1015F0000FF248520FF260503946FFF71BF83CE0FB
:10160000B9F5487F39D80FF2645034E00FF27C50BE
:10161000FEF7E8FF01200AE00FF27C50FEF7E2FF40
:10162000032004E00FF27C50FEF7DCFF0520F061A0
:1016300023E0B06AA0B90120B0628BED00AADFF808
:10164000EC03CAF8000018E0000087430100B44230
:101650000000B4430000B4C300009E42000034C345
:101660000020B06209E00FF25C5004E00FF2685015
:1016700001E00FF27450FEF7B5FFB06E40BBF069A9
:10168000B16A084328D1686930B994F9030064212C
:1016900000F0D8F886ED150AE868A969084306D174
:1016A00094F904000A2100F0CDF886ED160A94F9A9
:1016B00005004A3000EE100A94F90600B8EEC00AA0
:1016C0008AED000A503000F0BFF88BED000A03E00D
:1016D000012808BF8BED00AAA869F78A95ED070AD3
:1016E00000284DD0C94896ED0F1AD0ED000A30EE13
:1016F000C11ADFED6C1A00F095F848BF30EE290AE8
:1017000006D4DFED691A00F08DF8A8BF30EE090AA3
:1017100030EEC01AB5EE401AF1EE10FA04DBB4EE6A
:10172000681AF1EE10FA09D4B4EE491AF1EE10FA83
:101730000FD5B4EE481AF1EE10FA0ADB30EE601A5B
:10174000F6EE001A9FED9E2A01EE212A8AED002A6C
:1017500014E0B4EE681AF1EE10FA08DBB4EE481AA1
:10176000F1EE10FA03D5B248CAF8000006E0DFED4A
:10177000951A00F057F8A4BF0020A861C6ED0F0A23
:1017800028696969B269C9B1032906D1B2B90421CE
:10179000B16102216961A74907E0022907D16AB94D
:1017A0000421B16101216961A34971650AE0012940
:1017B00008BF002A02D100206861B5E5002AFCD0EC
:1017C000042A08D1D0B96FF05900E86002202861DE
:1017D0000320B061A8E5032A07D10028FAD15A20D6
:1017E000E860012028610220F3E7022A06D10028E0
:1017F000F0D1E860022028610120EAE7B1690129FF
:1018000008BF002808D1DFED710AFFF7FAF9B061CF
:10181000FFF683AD30EE290A86E5000020000000C7
:10182000B6C80000B4EE611AF1EE10FA7047024635
:101830000B46DDE9000103F035BA0028FDD1012097
:101840003075704710FB01F000EE100AB8EEC00AC8
:10185000704738B50546287E022819D1774C0421F7
:10186000284602F0F3F92060206878B1002128466C
:1018700002F0ECF9642148432168B0FBF1F06060AC
:1018800003F009F82168B0FBF1F000E06060A060AF
:1018900031BD000000080240041200208810002022
:1018A00000140140000096C301009643C4110020BB
:1018B000004400400004004038B5614D4D4C28689C
:1018C000E16C2064411A6164E064FFF7EFF8FFF710
:1018D00013F8A06F401CA067E06F401CE067D4F8CD
:1018E0008000401CC4F88000E06E022808BFFEF7AC
:1018F00039FDA06F152820DB0020A067FFF77CF8DA
:10190000A06E08B1FEF73AFE01F064FB002003F080
:101910003AF8206B88B1616B491C062961630CDBC6
:1019200000216163A16B884205D10FF2F420FEF71C
:1019300059FE00202063206BA063E06F042808DBC1
:10194000A06E012808BFFEF751FFFEF72BFF002015
:10195000E067D4F880000B280ADB04F11C00FEF7D6
:1019600072FD04F12800FEF79FFD0020C4F88000FE
:101970002868216C401AA064FEF7BEFF206F28B1D2
:10198000E06EA16E084308BFFEF738FC1E492D48E3
:10199000096894ED160A8160F2EE040A80EE200ACE
:1019A0001749096880ED000ADFED100A94ED150A69
:1019B000C16080EE200A80ED010A31BD00000240C6
:1019C000000094420100B443000800400100344389
:1019D00000000140881000207C120020000C004014
:1019E00040380240B8120020004001400000C842C8
:1019F00000003110340E0020E4050020007000408B
:101A000040060020FC0C0020440600203C0500207D
:101A10000000C8C36013002040C1E54000E09540CD
:101A2000000022C0AA460041004065C00000C64236
:101A30000000F84200004844000048C4341300206D
:101A400024400140241300205B6D35355DD7D4B6AA
:101A5000AFC4A3CABD0000005B6D35355DCAD6B604
:101A6000AFC4A3CABD0000005B6D35355DBFAAC61B
:101A7000F4D4A4BEAF0000005B6D35355DB9D8B1BC
:101A8000D5D4A4BEAF0000005B6D35355DB8FAD784
:101A9000D9C4A3CABD0000005B6D35355DCDA3D6AA
:101AA000B9B8FAD7D90000005B6D35355DB4F3BC29
:101AB000D2BAC3A3ACCED2BDD0C6DFC1E3B6F95B08
:101AC0003D6572355D000000736F756E64343032B1
:101AD000000000005B6D35355DCFD6D4DAB5C4D1DA
:101AE000B9C7BFCAC7000000C5C1CBB9BFA80000B5
:101AF0005B6D35355DCFD6D4DAB5C4CFE0B6D4CA88
:101B0000AAB6C8CAC7B0D9B7D6D6AE005B6D353550
:101B10005DCFD6D4DAB5C4CEC2B6C8CAC7000000FD
:101B20005B6D35355DB3ACC9F9B2A8B2E2B5C3BEE1
:101B3000E0C7B0B7BDD5CFB0ADCEEF00C0E5C3D7DD
:101B4000000000005B6D35355DC7EBB2E5C8EBB357
:101B5000ACC9F9B2A80000005B6D35355DBEE0C0D0
:101B6000EBC7B0B7BDD5CFB0ADCEEF005B6D3535AF
:101B70005DBEE0C0EBC7B0B7BDD5CFB0ADCEEFB462
:101B8000F3D3DA3530C0E5C3D70000005B6D3535DF
:101B90005DCAC7B5C40000005B6D35355DC3BBD3FE
:101BA000D00000005B6D35355DB9FE5B3D6861348A
:101BB0005DB9FE5B3D6861335DB9FE5B3D686133D5
:101BC0005D0000005B6D35355DC8BBBAF3C4D85B02
:101BD0003D6E65355D0000005B6D35355DBBB6D390
:101BE000ADB9E2C1D9A3A1005B73305D5B6D353542
:101BF0005DB3FABACCC8D5B5B1CEE7A3ACBAB9B526
:101C0000CEBACCCFC2CDC1A1A3CBADD6AAC5CCD6BE
:101C1000D0B2CDA3ACC1A3C1A3BDD4D0C1BFE0009D
:101C20005B6D35355DB6CFBFAAB3ACC9F9B2A800BC
:101C30000068DFF8A013884200D0704710B5DFF8C5
:101C40009803DFF8984386B0016841F00101016014
:101C5000016801F0010100910099016841F0020161
:101C60000160016801F002010091009900F065F83F
:101C700000F063F8416941F48051416101A9406974
:101C800000F48050009000984FF480700190012083
:101C90000290039000200490059000F076F900F087
:101CA00031F80820019001A902200290039003203E
:101CB000049005200590CA4801F0C4FC402000F0C3
:101CC0002FF8802000F02CF80220019001A90120BB
:101CD000029000F01DF801220221204601F075FD5E
:101CE0000120019001A9BF480290002000F010F8E7
:101CF00000220321062002F0FAFA062002F019FB66
:101D000006B010BD00224FF48071204601F05DBD89
:101D100003900320049000200590204601F092BC1F
:101D2000019001A90220029000200390032004905A
:101D300005200590204601F085BC016841F00101B5
:101D40000160016801F0010100910099016841F012
:101D500001010160016801F00101009100997047E3
:101D60002DE9F0410446A04800680D460A2184B0E0
:101D7000B0FBF1F116461F4601A803F053F8DFF857
:101D80006C82F8B20090F3B22A462146404600F039
:101D900086F820B101A803F04DF80028F1D0BDE885
:101DA000FF8192488B4901604FF4827141600021AC
:101DB0008160C160016141614FF400718161002166
:101DC000016241620721C1620821C1610021816273
:101DD00003F03CB810B5814CFFF794FF052002F0EA
:101DE0000CFB0122FFF78FFFBDE81040052002F039
:101DF00004BB80B50121794801F0E1FC012818BF3E
:101E0000002002BD2DE9F04387B005460E46FF20B5
:101E100017468DF8050000240FF2D811DFF8BC81B9
:101E20000CC904A802210CC00022404601F0CDFCE0
:101E30000F200090052302AA04A900F08FF89DF856
:101E40000800022819D19DF80C009DF80B1051EAEA
:101E5000002912D04F450DDAB9460BE00F20009053
:101E6000012301AA0DF1050100F078F89DF80400A6
:101E7000A055641CE4B24C45F0DB0122022140462F
:101E800001F0A3FC002002E000BF0098401C00907D
:101E900000980228F8DB204607B0BDE8F0832DE962
:101EA000F0478846C6B091461E460FF250110546CF
:101EB0000CC903A80FF24C110CC00CC901A80027D3
:101EC0000CC0062002F03BFA00F04BF8009740F2FD
:101ED000654103E000BF0098401C009000988842D4
:101EE000F8DBDFF8F8A000220221504601F06DFC7B
:101EF0000F200090052301AA03A900F02FF800F09D
:101F000047F89DF8040002281AD14E9C9DF8050060
:101F100054FA86F1884210DB36B10F200090334628
:101F200005AA414600F01AF864B10F20009023463C
:101F300005AA494600F012F804E06FF0010701E03D
:101F40004FF0FF3701220221504601F03EFC0620EF
:101F500002F0EFF9384646B0BDE8F087284602F0B7
:101F6000D3BF10B586B001200090019003200390EC
:101F70000020029000A9194C00F007F8012201216D
:101F8000204601F022FC06B010BD204601F05ABBED
:101F900010B586B00120009000A912480F4C0190A6
:101FA000022002900320039000200490FFF7EDFF31
:101FB0000020029000A9FFF7E8FF06B010BD062040
:101FC00002F0B7B9062002F0BAB909490120086049
:101FD00070470000003001403038024000000240ED
:101FE0000004024000001110547B0008E41000209F
:101FF000143C01400B000000000000000A0000003B
:1020000000000000AA0000000000000088B1BB49E9
:102010000A78521D02700A78121D42700A78D21C8A
:1020200082700A78921CC2700A78521C0271097878
:102030004171704738B5B24C201D03F0EDF804F142
:102040000C0003F0E9F800258C2010FB054000F19E
:102050001401201D03F0F1F86D1C052DF4DB31BDDA
:1020600000F108010A78042A01D00120704790F895
:1020700088008978C01E814201D00220704700206C
:10208000704710B5A2B000200090FFF79BFF9C4C5A
:1020900010E000A904F10C0003F0DDF8FFF78FFF5A
:1020A0000098083000F074FAFFF78CFF0099201DAB
:1020B00003F0C3F804F10C0003F0B1F80028E8D0F5
:1020C000207850B90EE0802201A98E48FFF79AFED1
:1020D000C0B210B101A800F05BFAFFF78AFE002839
:1020E000F1D12070FFF76BFF22B010BD38B5002092
:1020F0000090FFF76AFF834C814D04E0281D03F038
:1021000095F8FFF762FFFFF774FE18B3281D03F080
:1021100086F8D8B900A9281D03F09DF8009800F1B1
:10212000080180222046FFF76DFEC0B2002800990A
:10213000E4D081F888000098FFF792FF009900280A
:10214000DCD105F10C0003F078F8DAE70120287003
:10215000FFF73BFF31BDFFF703BE30B5890583B004
:10216000890D41EA8020ADF80400144601208DF865
:1021700000001D468DF80640032201A90DF1010063
:1021800003F077F823460422294600A8FFF7E3FF6F
:1021900037BD38B504460D4607E000A9284603F0D0
:1021A0005AF80099204603F048F8284603F037F81B
:1021B0000028F2D031BD2DE9F041044686B0608898
:1021C000884680052188800D40EA81254E480068B8
:1021D0000A21B0FBF1F600200090ADB202A803F096
:1021E0001BF8E268A36861882088D2B2FFF7B5FFC8
:1021F000B8F1000F424F59D106B90126314604A863
:1022000002F010FE05E0009902A803F016F8FFF7AF
:10221000D6FE04A802F00EFE002867D107F10C00DC
:1022200002F0FDFF0028F4D1FFF7CCFE00A907F172
:102230000C0003F010F8009800F108021078042850
:10224000E1D10098527800F10B0190F88800C01E8F
:102250000E2A37D00F2A04D0102A47D03E2A38D071
:1022600008E04A88AA4241D162680F2A15D008784E
:1022700000283BD1009902A802F0DFFF381D02F0D0
:10228000CEFF0028C3D001A907F10C0002F0E3FF44
:102290000199381D02F0D1FFB9E762699042C8BFC9
:1022A000104660610246206902F0E3FF0099381D84
:1022B00002F0BCFF00F02AF8FFF781FE002006B014
:1022C000BDE8F081B1F80120AA420FD1C91CC01E9F
:1022D000E3E70A7863689A42CCD16269401E904273
:1022E000C8BF104660610246491CDCE700F00EF8EA
:1022F000FFF765FE4FF0FF30E1E70000107AFF1FA7
:1023000054060020E4100020547B000802A907F1C5
:102310000C003EE707A803902020049000A8059039
:102320000120069001A846E730B58FB000F017F8FD
:102330008DF81C40202CA8BF1F2400F017F800F0D7
:102340001BF800F01EF80920ADF80600FFF7E2FFC9
:1023500000284CBFFF209DF800000FB030BD0446A0
:102360000D462022002107A802F089BF22462946F7
:102370000DF11D0002F07DBF1822002101A802F01E
:102380007EBF0820ADF804000021704770471FB5DC
:1023900002F07FFF08B1682026E09B4CA07801285E
:1023A00004F1240304F1220204F1200118BF0320E8
:1023B00003F090F808B1692016E00120039007238C
:1023C00092480290002200200190002110200090ED
:1023D000012003F019F908B16A2005E0A07801286E
:1023E00008BF00F007F8002004B010BD014601202E
:1023F00003F088B910B59AB016A80FF2182100F0B2
:1024000054F812A80FF21C2100F04FF80EA80FF29A
:10241000242100F04AF80AA80FF2282100F045F81C
:1024200006A80FF2302100F040F8794CA01D009072
:102430000B23012216A9022002F03EFF002831D111
:1024400004F10A0000F034F812AA102003900221CF
:102450000120029000200190082000F02EF80028B2
:1024600020D104F10C0000F023F80AAA00F029F8AA
:10247000042000F022F8A8B904F1080000F018F8D0
:102480000EAA00F01EF8122000F017F850B904F15F
:102490000E0000F00DF806AA00F013F8102000F06E
:1024A0000CF800B147201AB010BD102203F074B927
:1024B000059014230120049070470090E08802F0FA
:1024C0002FBF10200390022100200290019070473E
:1024D00038B504464C4D03F08BF9287021462A7814
:1024E000501C687005F1280003F046F90920287196
:1024F00021462A78681D03F03FF9002032BD80B5DF
:1025000002460621002003F0D6F800B1672002BD84
:1025100070B50446084615461E46FFF7F0FF2046F4
:10252000FFF7D6FF2846FFF761FF3046BDE8704051
:102530002BE010B50FF22C110A6888B007A8002113
:1025400002600020FFF7F0FE012001F056FF2E4C44
:102550002378618C04F1280000900022208C02F086
:1025600034FF618B0020069005900A4607A804906E
:1025700003200390201D02906078019000200090BD
:10258000034602F0D6FF08B010BD1F4948837047CC
:10259000411C0078042800D0704738B508781C4CDE
:1025A000052804D03E2808D0FF280FD031BD0020D8
:1025B000A0804879FEF7E4FD31BD8D1C2878012804
:1025C00020D1FFF7E3FE6888608031BD881C40F6AB
:1025D00001420188891A02D013390CD031BD821C06
:1025E0005079917919B1D21DFEF7B4FD31BD0128A2
:1025F00008D1A08031BD608800281CBFBDE83240F2
:1026000002F057BF31BD00008004002040E201000D
:10261000E40500208CF997A6EE94E3BCF821B260A3
:10262000008000008CF997A6EE94E3BCF821B2601C
:10263000018000008CF997A6EE94E3BCF821B2600B
:10264000028000008CF997A6EE94E3BCF821B260FA
:10265000038000008CF997A6EE94E3BCF821B260E9
:10266000048000000390FE000CB41CB5044604A8CE
:1026700001900A46009401AB00A90748784418303D
:1026800003F0D2F8009A0021117000285CBF009876
:10269000001B16BC5DF80CFB7F040000024600E046
:1026A000521C1378002BFBD111F8013B137012F868
:1026B000013B002BF8D17047010040F10980F4463E
:1026C000404200F005F851F000416047010000BFB2
:1026D00009D0B0FA80F18840C91CC1F584610905B0
:1026E00001EBD02140057047F0B540F2FF7581EA5B
:1026F000030C0CF0004C15EA11541DBF15EA1357DA
:10270000AC42AF42E5E0BC41C1F31301C3F3130394
:10271000801A994143F4801304D2641E4000494159
:1027200080185941C90241EA5051B1FBF3F603FB4D
:102730001611A2FB0675D7EBC020A94102D2761E66
:1027400080185941C90241EA5051B1FBF3FE03FB25
:102750001E11A2FB0E75D7EBC020A94103D2AEF12A
:10276000010E80185941890241EA9051760546EAE6
:102770008E2EB1FBF3F603FB1611A2FB0675D7EB09
:102780008020A94102D2761E80185941C90241EA2F
:1027900050514EEA060EB1FBF3F603FB1611A2FBF5
:1027A0000675D7EBC020A94102D2761E8018594188
:1027B000C90241EA5051B1FBF3F703FB1711A2FB29
:1027C0000735D3EBC020A94167F100070CBF0042D9
:1027D00047F0010766F3D5274FEA1E31B80814F514
:1027E000806412DDBD0775F1004250EB0E5051EBD5
:1027F000045111F5801F5CBF41EA0C01F0BD4CF0A3
:102800007F6141F0E0410020F0BDBD076D0840EA66
:102810000E5041F48011D4F10104B4F120060ADA1B
:10282000C4F120060200E04001FA06F3E14018433B
:10283000B24015430EE0342C13DCC6F1200445EA07
:1028400040056D0820FA06F2154321FA06F0A14072
:102850000D43002175F1004250F1000051EB0C01D5
:10286000F0BD00205FEA0C01F0BDCFB992185B41CA
:10287000B3FA83F704BFB2FA82F6BF190B3FB7F180
:1028800020062FBF02FA06F3BB40C7F1200622FA4A
:1028900006F638BF3343BA401CB1E419641E33E76F
:1028A0007F4231F00041B1FA81F404BFB0FA80F602
:1028B000A4190B3CB4F120062FBF00FA06F1A14089
:1028C000C4F1200620FA06F638BF3143A0403C1B75
:1028D0001AE7AC421ABF05EA1357AF4212E050EABA
:1028E00041061CBF52EA4306BFE750EA41073046A3
:1028F00061461CBF41EA0551F0BD52EA430C08BFD6
:10290000C143F0BD00204FF4001616EB410F98BFF5
:1029100016EB430F08BF16EB410F24BFC14305E080
:1029200016EB430F0CBF61464CEA0551F0BD50F861
:10293000041B61B150F8042BD30744BFA9F1010374
:102940009A180023091F42F8043BFAD1EFE77047B9
:1029500070B44FF0004591EA030C44BF6B4002F0A5
:10296000ABB900BF841A71EB030603D2001BB1415F
:10297000121973414FF4001C1CEB410F34BF7CEB68
:10298000430443E00C0DA4EB1356352E50DC45EA0E
:10299000C323DB0A45EAC121C912B6F120050DDDCA
:1029A00063FA05F6EB4086EA0305124218BF45F0CC
:1029B0000105C01851F100010CD213E062FA06F5CE
:1029C000F2405540F3415A40B340F3405A4080181A
:1029D000594107D349085FEA30005FEA350528BF4F
:1029E00045F0010501F58011420875F1004250F1F2
:1029F000000041EB045170BC4FF4001C1CEB410F74
:102A000038BF70470020090D090570471CEB410FC6
:102A100010D252EA43060BD0BCEB410F05D80C0D87
:102A2000AB43661E342EB5DD02E0AB43801859413E
:102A300070BC704770BC70474FEAF17CBCF1E04C51
:102A40002CBFBCF5001F11E05FEA4C0C34BFBCF199
:102A50007F5F2EE05FEA9C0C4FEA0C1C4FEA3C0CB7
:102A6000C10071F100414CEB50707047C90241EA5E
:102A70005051C00218BF41F0010141F000414FEA3E
:102A80006C50C0F10900212810D240EACC7CCCF176
:102A9000200C11FA0CF070F10040CCF1200C21FA5E
:102AA0000CF00CF0004C40EB0C0070474FEACC707F
:102AB0007047490011F5001F04D84FEACC10FF30D1
:102AC000C0057047C81770475FF0FF0C1CEAD05173
:102AD00014BF614506E0C110400721F0E04101F15B
:102AE0006051704779B900F0004100020AD0B0FA95
:102AF00080FC00FA0CF001F16051A1EB0C5101EBEC
:102B0000D0214005704741020CBF40F4E0016FF056
:102B10000001002070470268531C03601170704769
:102B200010B5040001D1012010BD94F8390018B986
:102B300000F01FF800F030F800F010F800F01DF879
:102B4000FFE741612068C16841F40051C160002085
:102B5000E063012084F83900002010BD022084F8D1
:102B600039002068C16821F40051C160204600F09E
:102B70003BB984F83800204670472068016921F489
:102B8000904101612068416921F02A0170470120CC
:102B900084F8390000207047704770B500F047F89E
:102BA00018BF22281E4640D1002D18BF002A01D18F
:102BB000012070BD00F053F837D000F042F8222811
:102BC0000CBF3220122084F83900A284E28406E08F
:102BD00000F033F800BB216815F8010B4860E08C69
:102BE000A0B1401EE0843346A068B0F5805FEFD10D
:102BF00000F023F880B928882168C005C00D48601E
:102C00002069002814BF6D1CAD1CE8E73346002284
:102C1000402100F014F808B1032070BD94F8390089
:102C200032280CBF2220012013E0022070BD044690
:102C30000D4694F839000128704700228021204673
:102C400086E0012084F838000020E06394F8390021
:102C5000704784F83900002084F8380070BD94F87B
:102C600038000128704710B50446FFF7E2FF18BF8F
:102C700012282CD1002918BF002A01D1012010BD33
:102C8000FFF7EDFF23D0012084F83800A162A28570
:102C90000020E06394F8390012280CBF3220222073
:102CA00084F83900636B0FF24900D863636B0FF24D
:102CB00075001864636B00F00CF80A46011D606B28
:102CC00003F0BCF92068416941F0400107E00220AF
:102CD00010BD0FF25D009864134620687047416193
:102CE000002084F8380010BD70477047704700001E
:102CF00080B5816B00680068C0050ED40020C885CF
:102D00000868426922F04002426191F83900322895
:102D10000CBF1220012081F839000846FFF7E4FFBC
:102D200001BD000080B5806BFFF7DFFF01BD000033
:102D300080B5806B00F1260100220A81C284012245
:102D4000CA74C16B41F01001C163FFF7CFFF01BD31
:102D50002DE9F04104460D4690461E4601F04AFB1F
:102D6000B8F1000F07460ED1206800682840A8423D
:102D700024D016F1010FF7D09EB101F03BFBC01B30
:102D80008642F1D20DE0206800682840A84215D1A3
:102D900016F1010FF7D026B101F02CFBC01B8642C3
:102DA000F1D200F00EF821F02001C16000F011F81E
:102DB000FFF7EDFE84F83800032000E00020BDE8B6
:102DC000F0812068C16821F08001C1602068C1687D
:102DD00070472068C16821F48071C1602068416932
:102DE00049084900416170472DE9F04104466425D6
:102DF00020680169E26821F44051114301611926FC
:102E0000C168314A1140A2681143226911436269C5
:102E10001143E2691143C1604169A26921F4407123
:102E200011434161E3692949294AB3F5004F17D19C
:102E3000904218BF884208D101F045FD804601F05C
:102E400042FD074601F03FFD07E001F034FD8046FA
:102E500001F031FD074601F02EFD61684A0016E0E1
:102E6000904218BF884208D101F02DFD804601F044
:102E70002AFD074601F027FD07E001F01CFD804612
:102E800001F019FD074601F016FD61688A007043E4
:102E900006FB07F3B0FBF2F0B3FBF2F3B0FBF5F087
:102EA00005FB1030000106FB08F13230B1FBF2F1F6
:102EB000B0FBF5F0B1FBF5F100F00F0040EA0110B6
:102EC00021688860BDE8F081F369FFFF00140140CC
:102ED000001001402DE9F0418D488E4F2DED048BFF
:102EE00090ED000A8C4897ED0D1AB0F9020087EDBD
:102EF000010A00EE900AF8EEE00A71EE600A9FED1A
:102F00007C1A80EE818A87ED050A87ED028ADFED63
:102F1000798AD7ED000A30EEC00AD7ED080A70EEC4
:102F2000800A9FED759AF4EE490ADFED719AF1EE91
:102F300010FAA8BFF0EE690A06DAF4EE680AF1EEBC
:102F400010FA48BFF0EE680AC7ED080AD7ED060A86
:102F500000F09CF80446386A0D46FFF7B5FD6F4A4D
:102F60006F4B00F071FA0646F8698846FFF7ACFD32
:102F70003246434600F068FA00F08EF897ED090AF1
:102F8000044628EE000A0D4610EE100AFFF79CFDDD
:102F900000F082F8044638690D46FFF795FD00F011
:102FA0007BF8FFF749FD00EE100AB4EE490AF1EE96
:102FB00010FAA8BFB0EE690A06DAB4EE680AF1EEBC
:102FC00010FA48BFB0EE680A87ED030ABDEC048B27
:102FD000BDE8F081534890ED000A5348D0ED000A57
:102FE0004C4890ED0C1AB8EEC00A30EE200ADFED26
:102FF000400AC0EE200A70EE810A9FED401AF4EEFE
:10300000410AF1EE10FAA8BFDFED3D0A08DA9FEDA4
:103010003D1AF4EE410AF1EE10FA48BFF0EE410A13
:1030200090ED0A1AC0ED0C0A20EE010A90ED0C1A80
:10303000D0ED0B1AD0ED100AC0ED0F0A01EE210AF7
:1030400080ED100A30EE600A002180ED110A8163E4
:10305000704770B52F4EB06BD6ED110A401C00EED4
:10306000100A86ED0E0AB8EEC00A00F00FF8002232
:103070002E4BFFF739FB0446F06B0D46FFF724FD9E
:1030800000F00AF8FFF7D8FC306170BD20EE200A8E
:1030900010EE100AFFF718BD22462B46FFF758BC6A
:1030A00010B52348234A016840681F4B11F1010FF6
:1030B0009FED150ADFED0F0A07D110F1010FC3EDE7
:1030C000000A11D10020106010BD10F1010F9FED1A
:1030D0000F1A08BFC3ED000A03D0002481421C6010
:1030E00002DA82ED001A10BD82ED000A10BD000068
:1030F00000007A4400007AC401007A4401001643BB
:1031000000001643000016C30000C8420000C8C2F9
:10311000380500207003002090050020FCA9F1D2A2
:103120004D62503F18100020880E002000003440EF
:10313000481300208C0E002038B5040001D1012076
:1031400032BD04F13C05687820B984F83C00204683
:1031500000F00CF802206870204600F0F4F800201F
:1031600068600120687000F055F832BD704781B08A
:103170000021009190F83C10012908BF022044D0A2
:10318000012180F83C1090F83D1022290CBF32211B
:10319000122180F83D1001688A68D20713D48A682A
:1031A00042F001028A60DFF88812DFF8882209689D
:1031B000B1FBF2F101EB410101E00099491E0091E0
:1031C00000990029F9D1002180F83C100068DFF84F
:1031D0006812096811F01F0F08D1816811F0405F73
:1031E00012D1816841F0804181600DE0DFF84C121E
:1031F000884202BFDFF84802016811F0405F03D146
:10320000016841F080410160002001B07047032057
:1032100084F83D00002084F83C0070470068C06CD2
:10322000704738B50022009290F83C20012A01D165
:10323000022032BD012280F83C2007240B6802687E
:103240000A2B10D30A3BD56803EB430300F076F852
:10325000D360D3680D688C680A3D05EB4505AC402A
:103260002343D3600DE0156903EB430300F066F8D8
:10327000136113690D688C6805EB4505AC40234369
:1032800013611F244B68072B0CD25B1E556B00F09B
:1032900053F85363536B4D680C886D1E00F047F86C
:1032A00053631AE00D2B0CD2DB1F156B00F044F8B2
:1032B0001363136B4D680C88ED1F00F038F813632F
:1032C0000BE00D3BD56A00F037F8D362D36A4D6846
:1032D0000C880D3D00F02BF8D362584B9A4221D157
:1032E0000B68554A122B03D1136843F48003136013
:1032F0000B68102B18BF112B14D1136843F4000373
:103300001360096810290DD149494A4A0968B1FB7F
:10331000F2F10A22514301E00099491E00910099FF
:103320000029F9D1002180F83C10002032BD05EBC6
:103330008505AC402343704703EB830304FA03F392
:1033400025EA030370473C490A6822F440320A60C8
:103350000A6843681A430A6001684A6822F4807266
:103360004A604A68036942EA03224A604A6822F0D6
:1033700040724A604A6883681A434A608A6822F445
:1033800000628A608A68C3681A438A602D4BC26AE9
:103390009A428A6822F070628A608A680AD0C36A98
:1033A0001A438A608A6822F040528A608A68036BF6
:1033B0001A4301E022F040528A608A6822F0020239
:1033C0008A608A68836942EA43028A60426A002A04
:1033D0004A680CD042F400624A604A6822F46042B3
:1033E0004A604A68836A5B1E42EA433201E022F483
:1033F00000624A60CA6A22F47002CA62CA6A036A38
:103400005B1E42EA0352CA628A6822F400728A6032
:103410008A68C36942EA43228A608A6822F4806229
:103420008A608A68406942EA8020886070470000AC
:10343000E005002040420F0004230140002001402D
:10344000082001400100000FB0B581EA030C0CF028
:10345000004C40F2FF7515EA11541DBF15EA1357D1
:10346000AC42AF4239E0E41923EA455343F48013F8
:10347000C90241F0004141EA505EC7021100A7FBBA
:10348000020200284FF00000EEFB01204FF0000187
:10349000E3FB072118BF42F0010240180021494117
:1034A000E3FB0E01A4F580640F0302D252004041F9
:1034B000494154F101046CDD470872F1004250F1BA
:1034C000000051EB0451A1F580115CBF41EA0C01F1
:1034D000B0BD4CEA05510020B0BD05EA1357AC421F
:1034E00014BFAF4241E050EA410E1CBF52EA430E06
:1034F00002E061460020B0BD24423C441BD15FEA9B
:10350000070EF6D0090302BF01460020AEF1140EEB
:10351000B1FA81F7AEEB070401FA07FE0C37C7F1E9
:10352000200100FA07F7C8404EEA000E23EA45538F
:1035300043F48013A2E733F00043B3FA83F704BFE8
:10354000B2FA82FE77440B3FE41BB7F1200E2FBF87
:1035500002FA0EF3BB40C7F1200E22FA0EFE38BF6E
:1035600043EA0E03BA40641C82E750EA410E14BFDE
:1035700052EA430E6FF000014FF4001717EB430FB0
:103580008ABF194617EB410FB5E74CEA05510020F9
:10359000B0BDD4F10104B4F120070FDAC4F1200763
:1035A000520828BF42F0010210FA07F501FA07F7A6
:1035B000E1BF2A43E0403843E1400FE0352C98DC7E
:1035C000C7F1200452EA400220FA07F218BF42F085
:1035D000010231FA07F0A1400A43002172F10042D2
:1035E00050F1000051EB0C01B0BD0000F446400D5D
:1035F00040EAC120490006D200F014F8004248BF5A
:103600006FF00040604700F00DF84FF00041884235
:103610008CBF084640426047400D40EAC120490047
:1036200080F00D8040F00040490DA1F58061491CFB
:1036300005D4D1F11F0154BFC840C01770474FF0E7
:10364000000070472DE9F8470022694BDFF8A4819C
:10365000DFF8A4914FF00F0A012707FA02FC0F6868
:103660000CEA0707674540F0A4804C68022C18BF9D
:10367000122C10D1D40800EB840E02F00704DEF8FF
:103680002050A4000AFA04F6B5430E6906FA04F4C1
:103690002C43CEF820404FEA420E05680E790324F1
:1036A00004FA0EF4E44306F00306254006FA0EF68B
:1036B000354305604D68012D18BF022D03D0112D33
:1036C00018BF122D0FD18568CE68254006FA0EF678
:1036D00035438560456825EA0C064D68C5F300153D
:1036E000954035434560C56825408C6804FA0EF462
:1036F0002C43C4604C68E4005BD5D9F8004044F426
:103700008044C9F800404FEA920CD9F8004004F414
:103710008044009402F00305009C58F82C40AE0051
:103720000AFA06F5AC43354DA84208BF002513D070
:10373000334DA84208BF01250ED0324DA84208BF24
:10374000022509D0304DA84208BF032504D02F4DD3
:10375000A8420CBF04250525B5402C4348F82C4051
:10376000FD431C6805EA040E4C68E40348BF47EAC1
:103770000E0EC3F800E05C6805EA040E4C68A40372
:1037800048BF47EA0E0EC3F804E09C6805EA040E41
:103790004C68E40248BF47EA0E0EC3F808E0DC6854
:1037A00005EA040C4C68A40248BF47EA0C0CC3F8B5
:1037B0000CC0521C102AFFF44FAFBDE8F18700691E
:1037C000084018BF0120C0B2704702B909048161E6
:1037D000704742695140416170470D4A1368034286
:1037E00000D1704780B5106002F06FFC01BD000091
:1037F000003C0140083801404438024000000240CB
:103800000004024000080240000C02400010024088
:10381000143C014010B5040001D1012010BD94F802
:10382000390018B900F054F800F001F81EE07047B4
:10383000022180F8391001680A6842F001020A602A
:103840000FE00068C16841F00101C160016841F00A
:10385000010101600020704703D10A68520852003C
:103860000A60012180F8391000207047022084F896
:103870003900211D206800F00DFA012084F839007C
:10388000002010BD10B5040001D1012010BD94F836
:10389000390018B900F01CF802F01AFCE6E710B580
:1038A00000F01AF801E000F01BF800F057FA206869
:1038B000DFF8F810884205D1DFF874130A6842F483
:1038C00000420A60016841F001010160002010BD62
:1038D00084F838002046704704460122206870476B
:1038E0000446080006D0042909D008290CD00C2968
:1038F0000FD013E02068C26842F002020DE0206899
:10390000C26842F0040208E02068C26842F008027F
:1039100003E02068C26842F01002C2602068012201
:103920007047022084F83900704770B504000D46D6
:1039300001D1012070BD94F8390018B9FFF7C8FF14
:1039400002F005FCFFF7EDFF00F06BF9211D206888
:1039500000F0A0F92068DFF8B06381688369026A2B
:103960003340AE683343AE6943EA0623DFF89C6315
:103970003340EE683343EE6943EA06232E6943EA97
:1039800006132E6A43EA06336E6822F0AA02324317
:103990006E692D682943816042EA061220688361BE
:1039A0002068026200F046F970BD0000000001408E
:1039B00010B5044609B1042901D1012203E000F049
:1039C00007F801220421206800F0C8F9206879E78F
:1039D00020680122002100F0C1B910B5044620681A
:1039E0000169890716D5C168890713D56FF00201EF
:1039F000016101212176806910F0030F204602D079
:103A0000FDF727FF04E000F042F9204600F040F9FE
:103A10000020207620680169490716D5C16849074A
:103A200013D56FF00401016102212176806910F441
:103A3000407F204602D0FDF70CFF04E000F027F99C
:103A4000204600F025F9002020762068016909074A
:103A500016D5C168090713D56FF00801016104216B
:103A60002176C06910F0030F204602D0FDF7F1FE69
:103A700004E000F00CF9204600F00AF9002020765E
:103A800020680169C90616D5C168C90613D56FF04B
:103A90001001016108212176C06910F4407F2046A1
:103AA00002D0FDF7D6FE04E000F0F1F8204600F069
:103AB000EFF80020207620680169C90708D5C168A1
:103AC000C90705D56FF0010101612046FDF7F4FE3D
:103AD00020680169090608D5C168090605D56FF097
:103AE00080010161204602F072FB206801694906ED
:103AF00008D5C168490605D56FF04001016120462F
:103B000000F0C7F82068016989060AD5C1688906EE
:103B100007D56FF0200101612046BDE8104002F09A
:103B200055BB10BD38B500F05BF801D1022032BDA5
:103B300000F085F832B1042A14D0082A24D00C2AC7
:103B400032D042E0206800F015F92068816941F028
:103B5000080100F041F821F0040100F03DF82A6965
:103B600011430FE0206800F0D3F82068816941F428
:103B7000006100F031F821F4806100F02DF82A692D
:103B800041EA0221816120E0206800F01BF92068F1
:103B9000C16941F0080100F01BF821F0040100F0B8
:103BA00017F82A6911430FE0206800F047F92068F0
:103BB000C16941F4006100F00BF821F4806100F06C
:103BC00007F82A6941EA0221C16100F00FF832BD0D
:103BD000C1612068C169704781612068816970474F
:103BE00004460D4694F8380001287047012084F8F7
:103BF0003900002084F83800704741B1042909D009
:103C000008290AD00C2904BF0068026407E0006894
:103C1000426304E00068826301E00068C263002040
:103C2000704720688168C908C9008160704700003A
:103C300044000140012084F8390000207047012031
:103C400084F83800022084F83900704790F8383042
:103C50000022012B01D102207047012380F8383067
:103C600041B1042909D008290AD00C2904BF0168F0
:103C70000A6C07E001684A6B04E001688A6B01E0A6
:103C80000168CA6B002180F83810104670477047F1
:103C900070477047F0B5614A0368614C614D624EF0
:103CA000904218BFB0F1804F04D0B0421CBFA84270
:103CB000A0420CD14F6823F070033B43904218BFE1
:103CC000B0F1804F0ED0B04218BFA8420AD0A04237
:103CD0001CBF564CA04205D0554CA0421CBF554CB1
:103CE000A04203D1CC6823F4407323430360904285
:103CF0008B68C3620B68836202D109694E4A116006
:103D000001214161F0BD0000FCFCFFFF0303FFFF48
:103D100070B5026A22F0100200F04EF823F4E64378
:103D200043EA05238D6824F0200444EA051400F0DA
:103D300071F80DD1CD688E6924F0800444EA051431
:103D40004D6922F44062354324F0400442EA850282
:103D50004260836149688163046270BD10B5036A83
:103D600001248C40A343036202FA01F1036A194360
:103D7000016210BD30B5026A5208520000F01CF812
:103D800023F073032B438D6824F002042C4300F0CE
:103D900041F80BD1CD6824F008042C434D6922F47E
:103DA00040722A438D6924F004042A4342608361EF
:103DB00049684163046230BD0262046A42688369F3
:103DC0000D68704770B5026A22F480720262046A5C
:103DD0004268C3690D6823F073032B438D6824F494
:103DE000007444EA052400F015F80DD1CD688E6901
:103DF00024F4006444EA05244D6922F4405235431A
:103E000024F4806442EA05124260C3614968C163D8
:103E1000046270BD014DA8427047000000000140DF
:103E2000000C004000080040000400400040014039
:103E300000440140004801403000014030B5026AB2
:103E400022F480520262026A4368C4690D6824F455
:103E5000E64444EA05248D6822F4005242EA053221
:103E6000FFF7D8FF04D14D6923F4804343EA85135B
:103E70004360C46149680164026230BD10B588B016
:103E800000208DF800003F4C207800284DD104E040
:103E9000002060606078401E6070B0EE000A6078BC
:103EA00001281DD13849394802916060012100F094
:103EB00048F8DFED320A00F03BF8E9D001A8884766
:103EC0000028E5D1606841680800E1D000A8884773
:103ED000002804BF9DF800006928D9D12C4820E0B3
:103EE0002C4902910020607001212B4800F029F834
:103EF0006060DFED230A00F01BF809D001A88847B5
:103F000030B960684168080002D000A8884718B13D
:103F100000206060012009E09DF800006828BCD105
:103F20001E486168086401202070002008B010BDA0
:103F30000168CDED010A08008DED050ACDED040AFA
:103F400070478DF80C108DF80D108DF80E108DF84F
:103F500018108DF819108DF81A1070470949496822
:103F6000C9680A0018BF0847012070470549496819
:103F700049690A0018BF0847012070470000D04374
:103F80000000EE43300600200000FA44FC0300204D
:103F90002806002000007543B803002020060020FA
:103FA000DFF8F802DFF8F81201614FF07E5101608E
:103FB000002141608160C1607047000010B5DFF8EA
:103FC000DC422DED0C8B94ED01BA94ED00CA94ED1A
:103FD00002AA6BEE0BBA6CEE0CCA94ED039A6AEE71
:103FE0000AAA3CEEAB0A69EE099A30EE6A0A30EE94
:103FF000690A9FED21DAF0EE00DA00F055F82BEEB9
:104000000A0A0CEE090A00F047F800F03CF800F04C
:104010004FF800F033F884ED060A2BEE090A0CEE97
:104020004A0A20EE2D0A00F03FF841EC100B02F096
:1040300061F951EC100B81F00041FEF7FDFC00F03E
:104040001DF884ED050A3CEEEB0A30EE6A0A30EE0C
:10405000290A00F029F82CEE0B0A0AEE090A00F0F2
:104060001BF800F010F800F023F800F007F884EDDA
:10407000070ABDEC0C8B10BDBE2E654200EE100A87
:1040800020EE0D0A704741EC100BB0EE481AF0EE2E
:10409000681A02F0A7B9000041EC110B20EE2D0ABE
:1040A000B0EE418AF0EE618A10EE100AFEF70CBD08
:1040B00051EC100BFEF7C0BCC4ED020A84ED030AFC
:1040C0007047000010B52DED0A8BB0EE619AB5EE89
:1040D000409AF0EE429AB0EE62AA704C94ED00BAAB
:1040E000D4ED01BA94ED02CAD4ED03CAF1EE10FA90
:1040F00001BFF5EE409AF1EE10FAB5EE40AAF1EEEE
:1041000010FAF0EE40AAB0EE608AF0EE418A6BD071
:1041100029EE090A09EEA90A0AEE0A0A00F0A7F830
:10412000BEEE001A0BEE0B1A69EE809A6BEE2B0AAC
:104130000CEEAC1A29EE009A2AEE00AA4CEE2C0ADC
:1041400069EE811A2BEEAC0A4AEE601A0BEE4C0AAD
:1041500069EE200A2AEE002A49EEC00A94ED090A07
:10416000B5EE400AF1EE10FA09EE412A2CDD94ED8D
:10417000090AD4ED0A2A9FED4B1A20EE210A40EEDF
:10418000012AC4ED0A2A94ED090AD4ED0B2A20EE87
:10419000020A40EE012AC4ED0B2A94ED090AD4ED7F
:1041A0000C2A20EE200A40EE012AC4ED0C2A94EDE0
:1041B0000A0A7AEE80AA94ED0B0A38EE008A94ED92
:1041C0000C0A78EE808A03E00020A062E06220639F
:1041D00094ED080A40EE21AA94ED080A00EE028A46
:1041E00094ED080A40EE208A9FED2F0A6AEE800ABD
:1041F00028EE001A6BEEE01A28EE800A4CEE411A07
:104200004CEEC01A31EE8B8A6BEE201A4CEE001A7F
:104210004CEEC11A71EEAB8A6BEE011A4BEEC01A6E
:104220002BEE000A0BEE810A0CEE600A70EE2C9A5F
:104230004CEEA01A28EE080A31EE8C9A08EEA80A75
:1042400009EE090A09EEA90A00F011F868EE000A61
:10425000C4ED000A68EE800AC4ED010A69EE000AA6
:1042600029EE800AFFF728FFBDEC0A8B10BD81B054
:104270000E488DED000AB6EE001A0099A0EB610021
:1042800000EE900A20EE010A20EE200AB7EE081A8E
:1042900000EE601A21EE200A01B0704724050020CC
:1042A0000AD7A33B0AD7233B0AD7A33ADF59375F84
:1042B00031480068C0F3022070470901002806D584
:1042C0002E4A00F00F00801800F8041C70472C4A9A
:1042D0008154704728490A684FF6FF031A4000F0DE
:1042E000070042EA0020274A10430860704770B573
:1042F00004460D461646FFF7DBFF00F007000121DC
:10430000C0F10702052A2EBF0F2201FA02F2521E47
:10431000031D072B34BF0020C01E2A40824001FA33
:1043200000F0401E304040EA02012046BDE87040E7
:10433000C3E7012100F01F029140134A04E001216C
:1043400000F01F029140114A400942F820107047C6
:1043500010B5401EB0F1807F01D3012010BD0C4C80
:1043600060600F214FF0FF30FFF7A7FF0020A06033
:1043700007202060002010BD0CED00E018ED00E0EB
:1043800000E400E00000FA0500E100E080E100E068
:1043900010E000E080B51F48016841F40071016041
:1043A000016841F480610160016841F4807101603D
:1043B0000320FFF78FFF0F2000F005F800F002F850
:1043C000002002BD704710B5044600F064FA4FF4B7
:1043D0007A71B0FBF1F0FFF7BBFF002221464FF0EE
:1043E000FF30FFF784FF002010BD0B480168491C17
:1043F0000160704708480068704711B581B0FFF749
:10440000F9FF0446FFF7F6FF0199001B8842F9D334
:1044100013BD0000003C0240641300202DE9F0476A
:10442000044682B02078DFF8C064C00741F28939C1
:104430003BD5B06800F00C00042805D000F02CF942
:1044400009D17068400206D5306880032DD56068B8
:1044500058BB01201AE10020B070FFF7CBFF0746E0
:104460003068800305D5FFF7C5FFC01B4845F7D36B
:1044700009E16068B070606858B1FFF7BBFF07469C
:104480003068800311D4FFF7B5FFC01B4845F7D350
:10449000F9E0FFF7AFFF07463068800305D5FFF767
:1044A000A9FFC01B4845F7D3EDE02078DFF83C7446
:1044B000800716D5B06810F00C0F05D000F0ECF8AE
:1044C00027D17068400224D43068800702D5E068A4
:1044D0000128BED13068216920F0F80040EAC1000F
:1044E00030602078DFF8088400073DD56169DFF887
:1044F000040459B301210160FFF77CFF0546D8F899
:104500000400800730D4FFF775FF401B6528F6D301
:10451000B9E0E06868B101203860FFF76BFF05463D
:1045200030688007D6D4FFF765FF401B6528F7D3B6
:10453000A9E03860FFF75EFF054630688007D0D5F8
:10454000FFF758FF401B6528F7D39CE00160FFF799
:1045500051FF0546D8F80400800705D5FFF74AFF4C
:10456000401B6528F6D38EE0207840074CD5306C90
:10457000DFF884A340F080503064306C00F080504D
:1045800000900098DAF8000040F48070CAF800004B
:10459000FFF730FF0546DAF80000C00505D4FFF745
:1045A00029FF401B6528F6D36DE0002088F8000045
:1045B000FFF720FF0546D8F80000800705D5FFF774
:1045C00019FF401B4845F6D35DE0A06888F800005D
:1045D000A06860B1FFF70EFF0546D8F8000080071D
:1045E00012D4FFF707FF401B4845F6D34BE0FFF717
:1045F00001FF0546D8F80000800705D5FFF7FAFE51
:10460000401B4845F6D33EE0A06900283DD0B16884
:1046100001F00C0108293FF41CAF022828D100F05A
:1046200037F805463068800105D5FFF7E3FE401BEB
:104630006528F7D327E0E069216A0843616A40EA08
:104640008110A16A891EC903090C40EA0140E16A90
:1046500040EA01607060012000F01BF804463068F9
:10466000800112D4FFF7C6FE001B6528F7D30AE0CD
:1046700000F00EF804463068800106D5FFF7BAFE58
:10468000001B6528F7D3032000E00020BDE8F68773
:1046900000203866FFF7AEBEB06800F00C000828B6
:1046A00070472DE9F843DFF85442DFF83C520646E4
:1046B00020680F4600F00F00B84241F2893847D217
:1046C00000F0ADF810D100F0B7F840F18B807068C1
:1046D000012802D12968890305E0022818BF0328B0
:1046E00003D12968890103D47AE02968890777D53D
:1046F00000F09BF80746706801280AD1A86800F00E
:104700000C0004286ED0FFF775FEC01B4045F5D3A2
:1047100061E0022809D1A868FFF7BFFF62D0FFF768
:1047200069FEC01B4045F6D355E0032806D1A868B2
:10473000FFF760FEC01B4045F9D34CE0A86810F0BD
:104740000C0F4FD0FFF756FEC01B4045F6D342E09A
:1047500000F072F841D57068012802D129688903F8
:1047600005E0022818BF032803D12968890103D472
:1047700036E02968890733D500F057F8814670681C
:1047800001280AD1A86800F00C00042825D0FFF702
:1047900031FE00F040F8F5D31DE0022809D1A868E9
:1047A000FFF77BFF19D0FFF725FE00F034F8F6D3B2
:1047B00011E0032806D1A868FFF71CFE00F02BF8D3
:1047C000F9D308E0A86810F00C0F06D0FFF712FE2E
:1047D00000F021F8F6D303201BE000F020F801D010
:1047E000012016E03078400705D5A868F16820F46C
:1047F000E0500843A8603078000706D5A868316902
:1048000020F4604040EAC100A8600F20FFF7DBFD04
:104810000020BDE8F283A0EB0900404570472770F7
:10482000206800F00F00B8427047A968890840EA84
:104830008100A860FFF7DEBD3078800705D5A86845
:10484000B16820F0F0000843A8603078C0077047D6
:104850002C48416801F00C01042902D0082902D03B
:1048600017E02948704701680268520201F03F01D1
:104870004CBF254A254AB2FBF1F102680068C0F33B
:104880000140C2F38812401C51434000B1FBF0F0DC
:1048900070471E48704780B5FFF7DAFF184B0FF2DC
:1048A00074021B681A49C3F303139A5C20FA02F3DB
:1048B0000B60086802BD80B5FFF7EDFF00F00EF851
:1048C000C2F3822206E080B5FFF7E5FF00F006F8AC
:1048D000C2F34232125C21FA02F002BD084A1268A9
:1048E00001460FF230007047003802400000474296
:1048F00070380240800E474200700040003C024089
:10490000083802400438024000127A000024F40003
:10491000E00500200000000001020304010203047E
:104920000607080970B5040086B008D1DFF87400E6
:10493000016841F001010160006800F02EF80FF2FB
:104940006C00DFF8646030F814500195012002908B
:10495000039001A90220049056F82400FEF772FE8D
:1049600056F8240000222946FEF72FFF06B070BD3E
:104970000FF23801DFF8303031F8101053F8200012
:104980000122FEF722BF0FF22401DFF81C2031F8CC
:10499000101052F82000FEF71CBF00F0010000903C
:1049A0000098704730380240480600202000000080
:1049B0001CB500208DF80400154C207830BB002178
:1049C0008DF802108DF8011040218DF803101C2184
:1049D00010488DF8001060600168080009D000A838
:1049E000884730B960684168080002D001A888474C
:1049F00018B100206060012016BD9DF804003D281C
:104A000004D161680448086101202070002016BDAF
:104A100058130020A80500200806002010B584B017
:104A200000208DF800001A4C2078F0B903211948B5
:104A30008DF8091060600168080009D001A8884756
:104A400030B960688168080002D000A8884718B1B2
:104A500000206060012009E09DF80000BC2804D11E
:104A600061680D48C86201202070002004B010BDAC
:104A700007494968496A0A0018BF0847012070477A
:104A800003494968896A0A0018BF0847012070472E
:104A900050130020580500200006002010B584B0F7
:104AA00000208DF80800314C207800283DD104E02A
:104AB000002060606078401E60706078012817D127
:104AC00000F03CF82A4800F033F8F1D000A88847FD
:104AD0000028EDD1606881680800E9D002A8884705
:104AE000002804BF9DF80800BD28E1D1214818E046
:104AF00000F024F8204800F01BF809D000A88847EF
:104B000030B960688168080002D002A8884718B1EF
:104B100000206060012009E09DF80800BD28CCD18C
:104B200016486168086301202070002004B010BDA1
:104B30008DF80210606001680800704710218DF840
:104B4000001000218DF8041008218DF803100121B8
:104B50008DF805108DF8011004217047034949684C
:104B6000496A0A0018BF084701207047380600202C
:104B7000F004002018060020BC04002010060020CD
:104B800010B5394C3948A0604FF00060E06000205B
:104B9000206160614FF48060A0610020E0612062CC
:104BA0004FF4807060624FF48030A0620020E062B9
:104BB000032020634FF400006063A06304F1080049
:104BC00001F004FA2B48206404F10801416310BD90
:104BD00010B52948294C86B000F059F800F057F874
:104BE000016941F400310161016901F40031009172
:104BF0000099016841F40011016001A9006800F406
:104C000000100090009804200190022002900020E3
:104C100003900220049000F035F80820019001A9CB
:104C200000F030F8134C16482060206C60600020C3
:104C3000A060E0602061A0610C2060612046FDF76B
:104C40006FFF00B1FEE7FFF79BFF4FF40070A085F8
:104C500000200749A162E0634FF400722046FEF78E
:104C600002F806B010BD0000281000208860024045
:104C700024090020000000203038024000000240DB
:104C800000440040072005902046FEF7DBBC016889
:104C900041F001010160016801F0010100910099FA
:104CA0007047000070B44FF0004591EA030F44BF15
:104CB0006B40FDF757BE00BF841A71EB030604D2A8
:104CC0006E40001BB141121973414FF4001C1CEBE4
:104CD000410F34BF7CEB430684E00C0DA4EB13566C
:104CE000362E7DDC012E43DC45EAC32343EA5253D2
:104CF00012BFD20292025B08240545EAC12141EAB3
:104D00005051D2EBC020994125D407D1B0FA80F69A
:104D100010FA06F164D00020203608E0B1FA81F6DE
:104D2000B140C6F1200220FA02F21143B0404FEA2E
:104D3000F474B4EB465434F001064FEA74040AD814
:104D4000D6F50016760D04F00044F04061FA06F244
:104D50005040F1404840C00A40EA415021F0004133
:104D600028BF5FEA500550F1000044EBD12137E045
:104D700045EAC323DB0A45EAC121C90AB6F1200589
:104D80000EDD42EA0242120CC5F1200603FA06F6D5
:104D9000EB4042EA06056D42984161F100010DE0E9
:104DA00062FA06F5F240554063FA06FC82EA0C020C
:104DB000F3405A406D42904161EB030111F4801FB2
:104DC00005D1641E620502D06D004041494121F4C5
:104DD0008011430875F1004350F1000041EB04518C
:104DE00070BC70471CEB410F15D223F0004352EA10
:104DF00043060BD04FEA4C0CBCEB410F04D80C0D12
:104E0000661E342EB7DDEBE7801A994150EA410661
:104E100008BF0021E4E708BF1CEB430F28BF6FF079
:104E20000001DDE710B504466160FFE701F0E4FA38
:104E3000206010BD10B5044601F0DEFA22686168FA
:104E4000801A401C81428041C00F10BD10B5040083
:104E500001D1012010BD94F8510020B984F8500010
:104E60002046FCF7E5FE022084F8510000F029F806
:104E70006068A1680843E1680843216908436169E3
:104E80000843A16901F400710843E1690843216AFC
:104E90000843A16A084321680860A069616A000CA0
:104EA00000F004000843216848602168E06A086156
:104EB0002068C16921F40061C1610020606500F0D3
:104EC0004BB92068016821F04001016070472068FB
:104ED0000168490603D4016841F040010160E068BF
:104EE0007047A06AB0F5005F04D12068016841F402
:104EF000805101602B4600220121204600F03FB97D
:104F0000002084F8500032BD38B500F01AF918BFFF
:104F1000222840F0AC8000291CBF002A002B00F0A2
:104F2000A38000F00AF900F0A28000F00FF9012838
:104F300004BF322084F8510000206065A263A3877B
:104F4000E3872163A386E38600F055F9FFF7BFFFEF
:104F5000049DB0F5006F606832D128B1B0F5827F52
:104F600004BFE08E012801D100F0A2F8E08E0028F5
:104F700019D100F0F6F81CD100F0A5F819E000F006
:104F80007FF800F0FAF8002849D100F091F880B2DB
:104F9000002804BFA06AB0F5005FFFF7A5FF002856
:104FA0003DD100F0B6F8E08E0028E8D16068002816
:104FB0003CD100F0DFF8002831D100F091F832E068
:104FC00028B1B0F5827F04BFE08E012801D100F046
:104FD00065F8E08E00281AD1FFF783FF00281ED164
:104FE0002068C068A16B08701DE000F049F800F06F
:104FF000C4F8A0B900F052F880B2002804BFA06A3B
:10500000B0F5005FFFF770FF48B900F03DF8E08EA3
:105010000028EAD1606848B900F0ACF808B1032074
:1050200032BD00F026F8E08F401EE08700F099F8CE
:1050300009D100F09FF820B1606D40F0020060657A
:10504000EDE700F046F82B460122802100F095F8AC
:1050500018B1606D40F01000F1E700F065F805D17F
:10506000C90603D500F044F8012032BD48E702200C
:1050700032BDA06B411CA1632168C96801707047F3
:105080002B46002202217047A06B411CA1632168BE
:10509000C9680170E08F401EE0877047206B411C9B
:1050A000216321680078C860E08E401EE08670476A
:1050B000206B21680088C860206B801C2063E08E14
:1050C000401EE08670472068016841F4805101600D
:1050D00070472068C068ADF80000BDF80000704758
:1050E0002068C068A16B0880A06B801CA06370471B
:1050F000616D41F002016165016821F400510160B8
:105100002068016841F400510160002084F85000DB
:1051100070472068C068A16B0880A06B801CA063EA
:10512000E08F401EE0877047012084F8510020681E
:105130008168A26AB2F5005F704794F850000128B8
:105140007047044694F8510001287047012084F804
:10515000500094F85100704700F007F8002010BD8F
:10516000E087A06AB0F5005F7047012084F8510025
:10517000704700002B46002201212046FFE72DE961
:10518000F04104460D4690461E46FFF733F9B8F14C
:10519000000F07460ED1206880682840A84227D01B
:1051A00016F1010FF7D09EB1FFF724F9C01B86421C
:1051B000F1D20DE0206880682840A84218D116F18D
:1051C000010FF7D026B1FFF715F9C01B8642F1D2C7
:1051D0002068416821F0E0014160FFF772FE00F0B5
:1051E0000CF8FFF7C2FF002084F85000032000E015
:1051F0000020BDE8F081A064E064A06AB0F5005F23
:1052000009D12068016821F400510160206801681B
:1052100041F40051016070470060406070470168D0
:10522000814201D1012070470020704702680A6066
:1052300048600160086841607047086042684A60E1
:1052400041604868016070474268016811604168C8
:1052500000684160704710B50C4601682160006825
:10526000FFE7FFF7F1FF2168002008602168486030
:1052700010BD10B5044600F07FFA204610BD10B5F1
:10528000044610460A460146204601F0B7F820467B
:1052900010BD00B587B000F0E5F800F0DEF840F290
:1052A0000110ADF8060000F0E5F800284CBFFF2023
:1052B0009DF8000007B000BD70B58CB001288DF8D6
:1052C0001C0014460CBF022610261D4632460DF166
:1052D0001D00FFF7CEFF701C07A9C0B20322445483
:1052E000441CE4B200A865540021FFF7C8FF00F099
:1052F000B9F800F0B2F84FF4817000F093F8601C38
:1053000000F059F800F0B9F8002848BFFF2005D494
:105310009DF8000010B9109900F048F80CB070BD6D
:10532000F1B58EB00D4616461F4602220EA900F0BA
:10533000AAF807AC012DA57031460CBF0225102537
:105340002A4600F086F8E81CC0B2411C0755C9B2D5
:1053500014980855491C1598C9B203220855491CD0
:105360001698C9B20855491C1798C9B24D1C085562
:10537000EDB21898285500F024F800F073F800F00A
:105380006CF84FF4827000F04DF8681C00F013F8D0
:1053900000F073F8002848BFFF2005D49DF80000F6
:1053A00010B9199900F002F80FB0F0BDBDF8010076
:1053B000088000207047C0B2049000A80590032028
:1053C0007047002100A8FFF75ABF33B51C46A01D47
:1053D0008128A7B01546A8BF422021DA022227A9BA
:1053E00000F051F8022228A900F052F82C998DF80B
:1053F00020508DF82140224600F019F800F032F8D4
:1054000000F02BF84FF4837000F00CF8A01DC0B230
:10541000049000F02FF800284CBFFF209DF80000FA
:1054200029B030BDADF8060007A8039070470DF114
:105430002200FFF71EBF3F20ADF808000021704793
:105440001822ADF80400002102A8FFF718BF224679
:1054500019460DF11F00FFF70CBF3F20ADF8040007
:10546000002170471822002101A8FFF708BF04900F
:105470000F20029000A805900120069001A8FCF7DB
:105480009ABE022228A907A8FFF7F3BE022229A983
:105490000DF11E00FFF7EDBEADF80A0001A8049063
:1054A0000220059000A806900120079002A8FCF7B2
:1054B00082BE00B589B0FFF7C3FFFFF7BCFF40F223
:1054C0002710FFF7E9FF00284CBFFF209DF80000E0
:1054D00009B000BD70B58AB00C468DF808001546BD
:1054E0001E46072200F0C1F800F0E0F800F0CBF80B
:1054F0008A20ADF80E0002A805900120069000A8B1
:1055000007900720089003A8FCF755FE002848BF25
:10551000FF200CD49DF8000048B9BDF801002080A0
:10552000BDF803002880BDF80500308000200AB0D7
:1055300070BD76B592B000F04FF828BF42201BD264
:1055400000F05AF800F02AF89DF8600000F02CF8FE
:1055500000F035F800F01AF800F010F800F08EF8BE
:1055600000F087F8832000F03FF800F098F800285A
:105570004CBFFF209DF8000014B070BDA41CE4B225
:1055800007A802221EA92018FFF773BE6419E4B20F
:1055900007A802221DA92018FFF76BBE022213A93B
:1055A0000DF11F00FFF765BE1A998DF822008DF8E6
:1055B00021608DF823502A4609A8FFF75ABE05F14D
:1055C0000800C0B207A9451C4454EDB21C9907A8B5
:1055D00022462818FFF74DBE199D1B9C54FA85F1F1
:1055E0000E3129291E467047ADF8060007A8039022
:1055F000A01CC0B2049070478DF81C00022212A9B2
:105600000DF11D00FFF735BE30B58FB08DF81C00D1
:105610008DF81D1014461D46102221460DF11E0066
:10562000FFF727FE12988DF82F008DF82E501822C4
:1056300013988DF8300000211498CDF8310015989A
:105640008DF8350001A8FFF71AFE00F012F8862049
:1056500000F01EF81A20049000F021F800284CBF3A
:10566000FF209DF800000FB030BD002100A8FFF71B
:1056700006BE3F20ADF8040000217047182200212B
:1056800001A8FFF7FCBD3F20ADF80C0000217047DA
:10569000ADF8060007A803907047ADF8060000A813
:1056A00005900120069001A8FCF785BD1822002175
:1056B00003A8FFF7E4BD10B50C461146A21C812AD1
:1056C000A8B0A8BF42201BDA8DF81C008DF81D4041
:1056D00022460DF11E00FFF7CCFD00F036F800F079
:1056E0002FF80C20ADF8060007A80390A01CC0B24C
:1056F000049000F031F800284CBFFF209DF8000016
:1057000028B010BD00B589B08DF804008DF80510E3
:105710001822002102A8FFF7B2FD3F20ADF80800D3
:1057200000210F20ADF80A0001A80490022000F02B
:105730001AF800284CBFFF209DF8000009B000BDFA
:105740003F20ADF80400002170471822002101A875
:10575000FFF795BDADF8060000A805900120069062
:1057600001A8FCF728BD059000A80690012007902D
:1057700002A8FCF720BD000062B38B0708D0521EC0
:1057800011F8013B00F8013B00F024808B07F6D1B3
:10579000830740F0208000BF103A07D330B4B1E84F
:1057A0003810103AA0E83810F9D230BC530724BFA3
:1057B000B1E80810A0E8081044BF51F8043B40F8D5
:1057C000043BD20724BF31F8022B20F8022B44BF40
:1057D0000B7803707047083A07D3B1E80810083A0D
:1057E00040F8043B40F804CBF7D25307E4E700004D
:1057F00000F10103810704D010F8011B89B1810772
:10580000FAD10268B2F10131914311F0803F04BF37
:1058100050F8042FF6E710F8011B11B110F8011B26
:10582000FBE7C01A704700002DE9F04F80460FF2E9
:10583000847095B092461D46D0E90023CDE913232C
:1058400003AE00200391B0610DF1340900E0A244E1
:105850000020ADF8020013AB4FF0FF3251460DF1BE
:10586000020000F0FEFD0446012C05DA9AF8000063
:10587000441EA441E043C40FBDF8020025280CBF1C
:10588000A4F1010BA346BBF1010F0EDB574617F83D
:10589000011B0398C0470390002800F0CF81B06936
:1058A000401CBBF1010BB061F1D1BDF8020025280D
:1058B00004D10020F0603061706105E00028C6D19D
:1058C000B069BDE140F001001AF8011F2029F9D0AC
:1058D00023290DD02B2904D02D2906D030290AD018
:1058E0000CE040F0020080B2EEE740F00400FAE77E
:1058F00040F00800F7E740F01000F4E72A290FD144
:105900002968296051F8042B2960002A326204D5E5
:10591000514240F00400316280B20AF1010A15E000
:10592000002131620CE0316A6FF00043994205D0EA
:1059300001EB810302EB4301303931620AF1010AC4
:105940009AF80020A2F130010A29ECD39AF800104D
:105950002E2903D04FF0FF31F16122E01AF8011F28
:105960002A2908D1296829600AF1010A51F8042B73
:105970002960F26115E00021F1610CE0F1696FF03E
:105980000043994205D001EB810302EB430130391A
:10599000F1610AF1010A9AF80020A2F130010A2906
:1059A000ECD3B0840FF214609AF8001000F06AFD96
:1059B00008B11AF8010B8DF832009DF83200682802
:1059C00004BF9AF80000682804D162208DF83200E4
:1059D0000AF1010A0DA8B0601AF8014B252C13D06A
:1059E000582C40D0632C00F09880642C18BF692C90
:1059F0006DD06F2C37D0702C2BD0732C0AD0752C17
:105A000018BF782C2FD0ABE00120F06025208DF856
:105A10003400B0E09DF832006C282868286014D06B
:105A200050F8044B28607460F769002F04D52046B5
:105A3000FFF7DEFE074606E03A460021204600F06A
:105A40002DFD00B1071B376195E050F8042B28604D
:105A50007FE02868286050F8041B286002910DA898
:105A60007060782155E09DF832206C2A0DD0712AA3
:105A700018BF6A2A09D12868C01D20F007032B60CF
:105A8000D3E9000108332B6004E02968296051F84C
:105A9000040B2960682A029002D102A8008803E062
:105AA000622A02D102A80078029096F8240000072A
:105AB0002AD5029840B344F02000782824D1302021
:105AC0008DF8340089F801400220F0601CE09DF858
:105AD0003200294600F0B7F80028029004D5F0689B
